9899883848578438A0000000147577276                              200101
6786868699080800D0000000000000000                              200101
6786868699080800Q0000000000000000                              200101
9999999911111111A0000000111111110                              200101
2222222238383838M0852974169248036                              200101
2222222238383838S8888888888888888ERROR: LESS THAN ZERO         200101
2222222238383838q8888888888888888                              200101
2222222238383838Q8888888888888888                              200101
